:100000000C942D000C9470010C9428010C94A70200
:100010000C94A7020C94A7020C94A7020C94A702BC
:100020000C94A7020C94A7020C94A7020C94A702AC
:100030000C94A7020C94A7020C94A7020C94A7029C
:100040000C94A7020C94A7020C94A7020C94A7028C
:100050000C94A70200600064800011241FBECFE54D
:10006000D4E0DEBFCDBFE4E5F0E040E017C0B591DD
:10007000A59135912591059107FD0CC0959185912C
:10008000EF01F92FE82F05900D92A217B307D9F7CA
:10009000FE0104C01D92A217B307E1F7E935F4078A
:0E00A00031F70E94B7010C945500F894FFCF81
:1000AE000FC00E947B0238F00E94820220F095233E
:1000BE0011F00C9490020C94A40211240C948A0258
:1000CE000E94410270F3959FC1F3950F50E0551FAA
:1000DE00629FF001729FBB27F00DB11D639FAA278F
:1000EE00F00DB11DAA1F649F6627B00DA11D661FDE
:1000FE00829F2227B00DA11D621F739FB00DA11DFF
:10010E00621F839FA00D611D221F749F3327A00DB8
:10011E00611D231F849F600D211D822F762F6A2F54
:10012E0011249F5750409AF0F1F088234AF0EE0FB9
:10013E00FF1FBB1F661F771F881F91505040A9F7E6
:10014E009E3F510580F00C9490020C948A025F3F02
:10015E00E4F3983ED4F3869577956795B795F79522
:10016E00E7959F5FC1F7FE2B880F911D969587959A
:04017E0097F9089550
:1001820011C00E947B0238F00E94820220F039F4F2
:100192009F3F19F426F40C94A4020EF4E095E7FBB9
:1001A2000C949002E92F0E94410258F3BA17620799
:1001B20073078407950720F079F4A6F50C94890259
:1001C2000EF4E0950B2EBA2FA02D0B01B901900170
:1001D2000C01CA01A0011124FF27591B99F0593FB4
:1001E20050F4503E68F11A16F040A22F232F342FFC
:1001F2004427585FF3CF469537952795A795F0404A
:100202005395C9F77EF41F16BA0B620B730B840B5E
:10021200BAF09150A1F0FF0FBB1F661F771F881F16
:10022200C2F70EC0BA0F621F731F841F48F487956E
:1002320077956795B795F7959E3F08F0B0CF939560
:0E024200880F08F09927EE0F9795879508957D
:100250001F920F920FB60F9211242F933F934F933B
:100260005F936F937F938F939F93AF93BF93EF931E
:10027000FF936091600070916100809162009091A5
:10028000630020E030E040E85FE30E9496028823AC
:10029000B4F460916000709161008091620090916F
:1002A00063002DEC3CEC4CEC5DE30E947502609326
:1002B0006000709361008093620090936300FF91EF
:1002C000EF91BF91AF919F918F917F916F915F91CE
:1002D0004F913F912F910F900FBE0F901F90189547
:1002E0001F920F920FB60F9211242F933F934F93AB
:1002F0005F936F937F938F939F93AF93BF93EF938E
:10030000FF93609160007091610080916200909114
:10031000630020E030E0A9010E949B021816B4F4AB
:100320006091600070916100809162009091630023
:100330002DEC3CEC4CEC5DE30E9474026093600099
:10034000709361008093620090936300FF91EF913E
:10035000BF91AF919F918F917F916F915F914F91DD
:0E0360003F912F910F900FBE0F901F90189598
:10036E0083E08ABB85E08BBB87B3886087BB85E75C
:10037E0083BF8CE082BB8AE085BF80EC8BBF789414
:10038E00CA990DC09BB383E089278BBB2FE986E802
:10039E0091E0215080409040E1F700C00000209194
:1003AE00600030916100409162005091630060E006
:1003BE0070E080E89FE30E94740220E030E04FE797
:0E03CE0053E40E94A0020E94EE016CBFD9CF42
:1003DC000E94490288F09F5798F0B92F9927B7517E
:1003EC00B0F0E1F0660F771F881F991F1AF0BA95CD
:1003FC00C9F714C0B13091F00E948902B1E00895A0
:10040C000C948902672F782F8827B85F39F0B93F91
:10041C00CCF3869577956795B395D9F73EF490957F
:0E042C008095709561957F4F8F4F9F4F08957B
:10043A00990F0008550FAA0BE0E8FEEF16161706EB
:10044A00E807F907C0F012161306E407F50798F053
:10045A00621B730B840B950B39F40A2661F0232B6C
:10046A00242B252B21F408950A2609F4A140A695E8
:08047A008FEF811D811D089523
:1004820057FD9058440F551F59F05F3F71F0479543
:10049200880F97FB991F61F09F3F79F08795089528
:1004A200121613061406551FF2CF4695F1DF08C047
:1004B200161617061806991FF1CF86957105610564
:0404C20008940895FD
:1004C600092E0394000C11F4882352F0BB0F40F45C
:1004D600BF2B11F460FF04C06F5F7F4F8F4F9F4F9C
:0204E600089577
:0E04E8005058BB27AA270E94C1000C94630243
:0E04F60000240A941616170618060906089523
:0E05040000240A941216130614060506089524
:0E051200E894BB2766277727CB0197F9089559
:0C05200097F99F6780E870E060E00895A4
:0A052C000E941D0208F481E008950A
:0A0536000E941D0208F48FEF0895E3
:080540000E9457000C946302B5
:060548009FEF80EC089516
:04054E000C94000009
:00000001FF
